:020000040000FA
:10000000081600207D010000850100008701000026
:10001000890100008B0100008D01000055000000E7
:100020000000000000000000000000008F01000040
:100030009101000000000000930100009501000004
:100040006B080000DF0300000504000093070000B8
:100050009D070000A7070000B1070000750200001F
:100060009701000097010000970100009701000030
:100070009701000097010000970100009701000020
:100080009701000097010000970100009701000010
:100090009701000097010000970100009701000000
:1000A00097010000970100009701000097010000F0
:1000B00097010000970100009701000097010000E0
:1000C00000F002F800F03FF80AA090E8000C82442B
:1000D0008344AAF10107DA4501D100F034F8AFF208
:1000E000090EBAE80F0013F0010F18BFFB1A43F016
:1000F00001031847BC250000DC250000103A24BF8E
:1001000078C878C1FAD8520724BF30C830C144BF7C
:1001100004680C60704700000023002400250026BE
:10012000103A28BF78C1FBD8520728BF30C148BF5A
:100130000B607047692902F01180002070471FB5DD
:100140001FBD10B510BD02F0F0F81146FFF7F7FF24
:1001500000F064F802F00EF903B4FFF7F2FF03BCFD
:1001600002F016F903480449086070470148024943
:100170000860704740787D010000002009488047F2
:1001800009480047FEE7FEE7FEE7FEE7FEE7FEE779
:10019000FEE7FEE7FEE7FEE704480549054A064B91
:1001A000704700006D010000C1000000080600203B
:1001B00008160020081200200812002010B504467E
:1001C0002146024801F0C8FE10BD000000001040AA
:1001D00010B5044603E02078FFF7F0FF641C207898
:1001E0000028F8D110BD000070B504460D4609483E
:1001F000006820B129462046064A1268904700BF91
:10020000054800680028FBD170BD024908607047AE
:10021000704700000C000020080000208EB000BFD6
:1002200000BF33A000680D9032A103C9CDE90B01D6
:1002300032A103C9CDE909012022324901A801F008
:10024000C9FF00F0E5FA00BF4FF0FF302E4908600B
:1002500000BF00F073F8044614B12CA0FFF7B8FFFC
:1002600007E00DA8FFF7B4FF9DF83400401CC0B2B2
:100270000D90F6E710B5072001218140224A43097D
:1002800042F8231000BF00F02AF810BD2DE9F0411C
:100290000546042700261AE0AC5D612C0ADB7A2CA7
:1002A00008DCE019C4B27A2C02DDA4F11A00C4B251
:1002B000AC550BE0412C09DB5A2C07DCE019C4B229
:1002C0005A2C02DDA4F11A00C4B2AC55761CA85D0C
:1002D0000028E1D12846FFF77BFFBDE8F08100F060
:1002E0001F0201219140144A430942F8231070472C
:1002F000410000000123456789ABCDEFFFFFFFFF01
:10030000FFFFFFFFA023000080E200E04572726F54
:1003100072202D2058696C696E78204750494F2013
:100320006661696C656420746F20696E69746961C7
:100330006C6973650A00000080E100E010B50021DF
:10034000694800F082FD04460CB1012010BD012176
:10035000664800F07AFD04460CB10120F6E7022160
:10036000634800F072FD04460CB10120EEE76FF027
:100370000F0201215C4800F0ADFA4FF0FF3202217C
:10038000594800F0A7FA5B4A0121584800F0A2FA48
:100390004FF0FF320221554800F09CFA0022012163
:1003A000534800F097FA00220121504800F04FFB1B
:1003B000002201214C4800F04AFB0020C6E710B59E
:1003C00002214A4800F0F7FB0221474800F0F3FB06
:1003D000464800F083FB444800F080FB10BD08B5A0
:1003E0000221414800F0F4FA009001213E48009AB1
:1003F00000F02DFB03213C4800F059FC012000F0E7
:100400006AF808BD7CB50221384800F0E1FA0028FE
:1004100036D00221354800F0DBFA01900121334843
:1004200000F0D6FA0090019800F0010010B1072406
:10043000012516E0019800F0020010B138240825CB
:100440000FE0019800F0040018B14FF4E07440256B
:1004500007E0019800F0080018B14FF460644FF411
:100460000075009800EA0406701900EA0406009876
:10047000A0433043009001211C48009A00F0E7FAA5
:1004800003211A4800F013FC022000F024F87CBD80
:1004900010B5044622460121154800F0D8FA10BDD7
:1004A00008B50221104800F093FA0090009A521CFF
:1004B00001210D4800F0CBFA08BD10B50B22012137
:1004C000094800F0C4FA10BD10B500220121064809
:1004D00000F0BDFA10BD00F01F0201219140064A54
:1004E000430942F823107047CC000020DC000020B4
:1004F000EC00002000F0FFFF80E200E070B5054650
:100500000021B54801F01AFA04460CB1012070BD73
:10051000B14800F0E0FCB04800F0D5FDAE49896973
:1005200001F11C00002100F054F90121AA4801F05A
:100530000EF80020EBE710B5A749896901F11C000E
:10054000002100F046F910BD70B5A349896901F199
:10055000600000F03BF9054645F004019E4A9269AF
:1005600002F1600000F035F906209C490870012373
:100570000022994800F037FE04460520974908708C
:10058000FF2048700223964A934800F02CFE044650
:10059000204670BD2DE9F04707460D4616468E49A8
:1005A000896901F1600000F011F9804648F004010A
:1005B000894A926902F1600000F00BF90DB1FC2D3F
:1005C00002D90120BDE8F087062084490870012384
:1005D0000022814800F007FE814602207F49087012
:1005E000300C4870300A8870CE70002405E017F88F
:1005F000011B201D794A1154641CAC42F7D32B1DFA
:1006000000227649744800F0EEFD8146002400E0A7
:10061000641C44F620608442FAD34846D2E72DE9B0
:10062000F04707460D4616466B49896901F160009F
:1006300000F0CCF8804648F00401674A926902F164
:10064000600000F0C6F80DB1FC2D02D90120BDE814
:10065000F087032061490870300C4870300A8870B8
:10066000CE70002404E00021201D5C4A1154641C5B
:10067000AC42F8D32B1D5A4A5849574800F0B3FDF5
:100680008146002405E05649201D085C07F8010B4F
:10069000641CAC42F7D34846D9E72DE9F04F93B03C
:1006A00007468846002012904B4890F82D4020467F
:1006B000E11704EB5171CD102346424649A102A82F
:1006C000009501F003FD02A8FFF782FD4249896908
:1006D00001F1600000F07AF883464BF004013E4AD5
:1006E000926902F1600000F074F84FF0000A17E020
:1006F0003949896901F1640000F068F8064606F09E
:10070000080060B997F800902F443349896901F1D6
:100710006800494600F05DF8129828441290AA44F7
:10072000C245E5D32C49896901F17000002100F030
:1007300050F82949896901F1600000F047F820F478
:10074000807B4BF00201244A926902F1600000F0C4
:1007500040F800BF2049896901F1200000F036F817
:10076000064606F004000028F4D01B49896901F10F
:10077000200000F02BF840F004001749019089692F
:1007800001F12000019900F024F8129813B0BDE89F
:10079000F08F10B5032000F010F810BD10B5042044
:1007A00000F00BF810BD10B5052000F006F810BDE4
:1007B00010B5062000F001F810BD00F01F02012165
:1007C00091400F4A430942F82310704701460868D8
:1007D0007047024611607047FC000020580100205D
:1007E000580200206C656E2025692C205769642012
:1007F00025692C20696E63722025690D0A000000AE
:1008000080E200E01F4A116070471F4A1160704784
:1008100010B500211D4801F0CAFB04460CB10120AF
:1008200010BD1A4AAFF21D01104601F0BFFA174A77
:10083000AFF22F01104601F087FA4FF4807214498D
:10084000124801F0C3F90020EAE70E490968114A8D
:100850001268881A18B10B4909680E4A116070476E
:1008600010B50A4801F047FB10BD10B5074801F06C
:10087000F5FA002001218140074A430942F823107C
:1008800000BF10BD100000201400002058030020FD
:10089000A40400201800002080E200E070B50446A7
:1008A0000D4616461CB100208A49086008E07921EF
:1008B0008948FFF799FC012086490860002070BD37
:1008C0002660A868A060E868E0604FF011306060C2
:1008D0000020F4E770B504460D4616461CB1002012
:1008E0007C49086007E09E217B48FFF77DFC0120E2
:1008F0007849086070BD6068B0F1113F03D10020F5
:100900007449086007E09F217348FFF76DFC0120E0
:1009100070490860EEE7012D04D0022D06D1E06891
:10092000012803D100206B49086007E0A0216A4834
:10093000FFF75AFC012067490860DBE7691E0423C2
:1009400003EBC10122685018314600F0BFF800BF28
:10095000D0E770B504460D461CB100205D49086023
:1009600008E0BC215C48FFF73FFC012059490860C2
:10097000002070BD6068B0F1113F03D100205549DF
:10098000086008E0BD215448FFF72EFC01205149C2
:1009900008600020EDE7012D04D0022D06D1E068AB
:1009A000012803D100204B49086008E0BE214A48D5
:1009B000FFF71AFC0120474908600020D9E7691EAB
:1009C000042303EBC1012268501801680846D0E7F0
:1009D00070B504460D461CB100203E49086008E091
:1009E000D6213D48FFF700FC01203A49086000206D
:1009F00070BD6068B0F1113F03D100203549086037
:100A000008E0D7213448FFF7EFFB012031490860A7
:100A10000020EDE7012D04D0022D06D1E068012869
:100A200003D100202B49086008E0D8212A48FFF7AD
:100A3000DBFB0120274908600020D9E7691E00235D
:100A400003EBC1012268501801680846D0E770B571
:100A500004460D4616461CB100201E49086007E0FA
:100A6000F2211D48FFF7C0FB01201A49086070BD44
:100A70006068B0F1113F03D100201649086007E01B
:100A8000F3211548FFF7B0FB012012490860EEE79B
:100A9000012D04D0022D06D1E068012803D10020E9
:100AA0000C49086007E0F4210B48FFF79DFB01208B
:100AB00008490860DBE7691E002303EBC1012268D7
:100AC0005018314600F002F800BFD0E7024611602E
:100AD0007047000004000020C023000010B5044649
:100AE0001CB10020CD49086007E05B21CC48FFF72E
:100AF0007BFB0120C949086010BD6068B0F1113F5F
:100B000003D10020C549086007E05C21C448FFF715
:100B10006BFB0120C1490860EEE7A068012803D102
:100B20000020BE49086007E05D21BD48FFF75CFB7F
:100B30000120BA490860DFE7216801F58E704FF0A7
:100B4000004100F067F900BFD6E710B504461CB1BC
:100B50000020B249086007E07621B148FFF744FB66
:100B60000120AE49086010BD6068B0F1113F03D1AB
:100B70000020AA49086007E07721A948FFF734FB65
:100B80000120A6490860EEE7A068012803D10020F3
:100B9000A249086007E07821A148FFF725FB012062
:100BA0009E490860DFE7216801F58E70002100F0A2
:100BB00031F900BFD7E770B504460D461CB10020DF
:100BC0009649086007E094219548FFF70DFB012046
:100BD0009249086070BD6068B0F1113F03D10020F8
:100BE0008E49086007E095218D48FFF7FDFA012046
:100BF0008A490860EEE7A068012803D100208749F0
:100C0000086007E096218648FFF7EEFA0120834945
:100C10000860DFE7216801F5947000F0F8F80646F7
:100C200046EA0501226802F5947000F0F3F800BF6F
:100C3000D0E770B504460D461CB100207749086026
:100C400007E0B8217648FFF7CFFA01207349086022
:100C500070BD6068B0F1113F03D100206F4908609A
:100C600007E0B9216E48FFF7BFFA01206B49086021
:100C7000EEE7A068012803D100206849086007E07A
:100C8000BA216748FFF7B0FA012064490860DFE73E
:100C9000216801F5947000F0BAF8064626EA0501CD
:100CA000226802F5947000F0B5F800BFD0E770B587
:100CB00004460D461CB100205849086007E0DB21BE
:100CC0005748FFF791FA01205449086070BD6068E9
:100CD000B0F1113F03D100205049086007E0DC214A
:100CE0004F48FFF781FA01204C490860EEE7A06801
:100CF000012803D100204949086007E0DD21484868
:100D0000FFF772FA012045490860DFE7216801F525
:100D1000907000F07CF8064606EA0501226802F5AC
:100D2000907000F077F800BFD0E710B504461CB112
:100D300000203A49086008E0FE213948FFF754FADC
:100D4000012036490860002010BD6068B0F1113FF5
:100D500003D100203149086008E0FF213048FFF747
:100D600043FA01202D4908600020EDE7A068012822
:100D700003D100202949086009E04FF48071284818
:100D8000FFF732FA0120254908600020DCE72168DE
:100D900001F5947000F03BF8D6E710B504461CB19D
:100DA00000201E49086009E040F21B111C48FFF7B3
:100DB0001BFA012019490860002010BD6068B0F1DD
:100DC000113F03D100201549086009E04FF48E71EE
:100DD0001348FFF709FA0120104908600020ECE7EA
:100DE000A068012803D100200C49086009E040F206
:100DF0001D110B48FFF7F8F9012008490860002091
:100E0000DBE7216801F5907000F001F8D5E70146B5
:100E10000868704702461160704700000400002017
:100E20000C2400000246002000210AE0174B03EBCF
:100E300001131B88934203D1144B03EB011002E012
:100E4000491C0329F2DB00BF704770B505460E460A
:100E50001DB100200E49086008E08B210D48FFF706
:100E6000C3F901200A490860002070BD3046FFF731
:100E7000D9FF04461CB9002068600220F5E721462E
:100E800028466268FFF70AFDEFE700001C0000201B
:100E9000040000205C24000070B50446A26902F141
:100EA0007000216B00F02DFDA16901F1600000F0E0
:100EB00025FD85B245F48075606A08B145F060058E
:100EC000A16901F16000294600F01BFD002060646B
:100ED0002064A06470BD10B504461CB10020FE491A
:100EE000086008E040F2B311FC48FFF77DF90120EB
:100EF000F949086010BDE069B0F1113F03D100204D
:100F0000F549086008E04FF4DA71F448FFF76CF92E
:100F10000120F1490860EDE72046FFF7BDFF002002
:100F20002062206B6063A16901F140000A2100F09A
:100F3000E8FC00BFDEE770B504460D46164640F2F9
:100F40001741E648FFF750F90120E349086070BDFA
:100F50002DE9F84304460D4690461CB10020DE49B9
:100F6000086009E0A921DD48FFF73EF90120DA49D0
:100F700008600020BDE8F883206AB0F1223F01D16B
:100F80000520F7E700202062A064D548E064002037
:100F9000A063E06320646064C4F81880A86860629D
:100FA000E868A062287C84F82C00687C18B90820C6
:100FB00084F82D0002E0687C84F82D00A87C84F879
:100FC0002E0068696065287E84F858004FF0113063
:100FD000E06194F82C1001208840401E2063206BB3
:100FE0006063002020606060A060E060206160615C
:100FF000687E012862D1A16901F1600000F07EFCE9
:10100000064646F06606A16901F16000314600F02F
:1010100078FC9F208DF8000000208DF801008DF8ED
:1010200002009DF80010A26902F1680000F069FC5E
:101030009DF80110A26902F1680000F062FC9DF8C1
:101040000210A26902F1680000F05BFCA16901F1E5
:10105000600000F053FC064626F48076A16901F199
:101060006000314600F04DFCA16901F1600000F024
:1010700045FC064646F48076A16901F160003146E0
:1010800000F03FFCA16901F1640000F037FC074665
:1010900007F0010020B9A16901F16C0000F02EFCFD
:1010A000A16901F1640000F029FC074607F0010086
:1010B00020B9A16901F16C0000F020FC2046FFF787
:1010C0000AFF002056E770B504461CB10020824993
:1010D000086009E040F235118048FFF785F80120EB
:1010E0007D490860002070BDE069B0F1113F03D177
:1010F00000207949086009E04FF49B717748FFF7B9
:1011000073F80120744908600020ECE7206AB0F110
:10111000223F01D10520E6E7A16901F1280000F096
:10112000EDFB42F22B0140EA0106A16901F1280022
:10113000314600F0E6FB4FF022302062A16901F158
:10114000600000F0DBFB054645F06205A16901F196
:101150006000294600F0D5FBA16901F11C004FF0A9
:10116000004100F0CEFB0020BDE770B504461CB185
:1011700000205949086009E040F283115748FFF701
:1011800033F8012054490860002070BDE069B0F1D7
:10119000113F03D100205049086009E04FF4C271AB
:1011A0004E48FFF721F801204B4908600020ECE78A
:1011B000A06C08B11520E8E7A16901F11C0000212D
:1011C00000F09FFBA16901F1600000F097FB05466C
:1011D00025F00201A26902F1600000F092FB0020FC
:1011E000206200BFD1E72DE9FC5F04468A469346A2
:1011F0001F464FF000091CB10020374908600AE083
:1012000040F226213548FEF7EFFF01203249086001
:101210000020BDE8FC9FBAF1000F03D000202E494A
:10122000086009E040F227212C48FEF7DDFF01208D
:10123000294908600020ECE71FB10020264908601A
:1012400009E04FF40A712548FEF7CEFF012022493C
:1012500008600020DDE7E069B0F1113F03D1002014
:101260001D49086009E040F229211C48FEF7BCFF37
:101270000120194908600020CBE7206AB0F1223F25
:1012800001D00620C5E7A06C08B11520C1E7A1690F
:1012900001F11C0000F032FBB0F1004F01D1012040
:1012A00000E000200190A16901F11C00002100F084
:1012B00028FBA16901F1600000F020FB064606F062
:1012C0000400D0B106F00100B8B9D4E90C1088428E
:1012D00013D10198012805E004000020B02400008B
:1012E000370F000006D1A16901F11C004FF0004149
:1012F00000F007FB40F283408BE70120A064C4F8B4
:1013000038A0C4F83CB02764676494F82D50A169F4
:1013100001F1640000F0F2FA804624E0082D03D1C8
:10132000A06B90F800900AE0102D03D1A06BB0F8EC
:10133000009004E0202D02D1A06BD0F80090A169AC
:1013400001F16800494600F0DCFAA06B00EBE50013
:10135000A063606CA0EBE5006064A16901F164002A
:1013600000F0CCFA804608F0080010B9606C002844
:10137000D4D1A26902F17000616B00F0C2FAA169D8
:1013800001F1600000F0BAFA064626F48076A16901
:1013900001F16000314600F0B4FA0198012815D13E
:1013A000A16901F1280000F0A9FA40F004000090C2
:1013B000A16901F12800009900F0A3FAA16901F1E7
:1013C0001C004FF0004100F09CFABEE0A5E000BF19
:1013D000A16901F1200000F091FA804608F00400B4
:1013E0000028F5D0A16901F1200000F087FA40F053
:1013F00004000090A16901F12000009900F081FA39
:10140000A16901F1600000F079FA064646F48071A6
:10141000A26902F1600000F074FAA16901F16400B0
:1014200000F06CFA804630E0A16901F16C0000F038
:1014300065FA8146082D07D1E06BD0B1E26B501CF4
:10144000E06382F8009014E0102D08D1E06B80B1C9
:10145000E16BA1F80090E06B801CE06309E0202DB7
:1014600007D1E06B28B1E06BC0F80090E06B001D85
:10147000E063206900EBE5002061A7EBE507A169C7
:1014800001F1640000F03AFA804608F001000028FB
:10149000CAD0606CF0B3A16901F1640000F02EFACB
:1014A000804624E0082D03D1A06B90F800900AE05C
:1014B000102D03D1A06BB0F8009004E0202D02D1D4
:1014C000A06BD0F80090A16901F16800494600F0D6
:1014D00018FAA06B00EBE500A063606CA0EBE500E0
:1014E0006064A16901F1640000F008FA804608F028
:1014F000080010B9606C0028D4D1A16901F1600026
:1015000000F0FCF9064626F48076A16901F160003E
:10151000314600E001E000F0F4F9002F7FF457AF0E
:10152000A16901F1600000F0E9F9064646F4807116
:10153000A26902F1600000F0E4F9A26902F1700012
:10154000216B00F0DEF90020A064002061E62DE9A7
:10155000F04104460E461CB10020EB4908600AE049
:101560004FF45F71E948FEF73FFE0120E64908604D
:101570000020BDE8F081E069B0F1113F03D1002007
:10158000E149086009E040F27D31E048FEF72CFEB9
:101590000120DD4908600020EBE7A06C08B11520B0
:1015A000E7E7002794F82C00451E06E026FA05F030
:1015B00000F0010000B17F1C6D1E002DF6DA012F36
:1015C00002DD40F28440D4E7F04360630020D0E7BE
:1015D00010B504461CB10020CB49086009E040F278
:1015E000BB31CA48FEF700FE0120C7490860002051
:1015F00010BDE069B0F1113F03D10020C24908607D
:1016000009E04FF46F71C148FEF7EEFD0120BE49BD
:1016100008600020ECE7606BC043E9E770B5044662
:101620000E4615461CB10020B749086008E040F29C
:10163000F931B648FEF7D8FD0120B349086070BD06
:101640001DB10020B049086008E040F2FA31AF480F
:10165000FEF7CAFD0120AC490860F0E7E069B0F18F
:10166000113F03D10020A849086008E040F2FB3197
:10167000A648FEF7B9FD0120A3490860DFE7E5644D
:10168000266500BFDBE72DE9F84F81464C46002771
:10169000B9F1000F03D000209B49086009E040F237
:1016A00056419A48FEF7A0FD012097490860BDE821
:1016B000F88F6069401C6061A16901F1200000F0B1
:1016C0001DF90546A16901F1200000F017F9284332
:1016D0000090A16901F12000009900F012F905F0D5
:1016E0000100A8B1D4E91001A0EB010A2068401C58
:1016F00020602046FFF7D0FBA16901F1640000F0F3
:10170000FDF8524640F27F41D4E913309847CEE7C6
:1017100094F82D6005F0040018B905F04000002889
:101720007AD0A16901F1600000F0E8F883464BF43B
:101730008071A26902F1600000F0E3F8A16901F193
:10174000640000F0DBF880462BE0A16901F16C0039
:1017500000F0D4F80746082E06D1E06BB8B1E26B72
:10176000501CE063177012E0102E07D1E06B70B1CF
:10177000E16B0F80E06B801CE06308E0202E06D157
:10178000E06B20B1E06B0760E06B001DE063206957
:1017900000EBE6002061A16901F1640000F0AEF801
:1017A000804608F001000028CFD0606CA8B3A16982
:1017B00001F1640000F0A2F8804621E0082E02D179
:1017C000A06B077808E0102E02D1A06B078803E019
:1017D000202E01D1A06B0768A16901F1680039468C
:1017E00000F08FF8A06B00EBE600A063606CA0EB4C
:1017F000E6006064A16901F1640000F07FF88046B2
:1018000008F0080010B9606C0028D7D1A16901F177
:101810006000594600F075F81CE0FFE7A26902F18C
:101820007000216B00F06DF8A16901F1280000F053
:1018300065F820F004000090A16901F128000099EA
:1018400000F05FF80020A0644FF49061D4E91330F9
:10185000226C984705F0800028B100224FF4916176
:10186000D4E91330984705F4807028B1002240F283
:101870008941D4E91330984705F0020060B1D4E9FA
:101880001001A0EB010AE068401CE060524640F203
:101890008741D4E91330984705F0200060B1D4E9BE
:1018A0001001A0EB010AA068401CA060524640F263
:1018B0008241D4E91330984705F0080060B1D4E9BB
:1018C0001001A0EB010A6068401C6060524640F2C3
:1018D0008141D4E91330984705F4005060B1D4E950
:1018E0001001A0EB010A6068401C6060524640F2A3
:1018F0008A41D4E91330984700BFD8E6014608680A
:10190000704702461160704704000020B0240000B8
:1019100010B50246002000210CE0C1EBC103164CBB
:1019200034F82330934204D1C1EBC10304EB8300AC
:1019300002E0491C0429F0D300BF10BD70B5054674
:101940000E461DB100200D49086008E086210C48B4
:10195000FEF74AFC012009490860002070BD3046AE
:10196000FFF7D6FF04460CB90220F7E721462846C8
:101970006268FFF7EDFAF1E74C0000200400002058
:10198000FC24000070B504460D4640F2BB11EB4844
:10199000FEF72AFC0120EA49086070BD70B50446D4
:1019A0000E4615461CB10020E549086008E08B2171
:1019B000E248FEF719FC0120E1490860002070BDF3
:1019C000002060620021E162A1622063A163616383
:1019D0004FF011302062E561DA48E0636064E1694C
:1019E00001F10C00002100F0A5F9204600F041FBB8
:1019F0000020E4E72DE9F04104460025E16901F10A
:101A0000080000F094F9C6B2E16901F1080000F0A5
:101A10008EF9C6B2E16901F10C00002100F08AF9EB
:101A200037460CE0626A515DE269101D00F082F9F0
:101A30006D1CE16901F1080000F079F9C6B206F009
:101A4000080010B9E06AA842ECD8606A28446062D5
:101A5000E06A411BE162A0682844A06007F010071B
:101A6000E16901F10C00394600F064F92846BDE84F
:101A7000F0812DE9F04104460E4615461CB10020C8
:101A8000AF49086009E0DA21AC48FEF7ADFB012060
:101A9000AB4908600020BDE8F0811EB10020A849D4
:101AA000086008E0DB21A548FEF79EFB0120A44961
:101AB00008600020EFE7206AB0F1113F03D1002059
:101AC0009F49086008E0DC219C48FEF78DFB01205F
:101AD0009B4908600020DEE7002D03DB00209849C9
:101AE000086008E0DD219548FEF77EFB012094495F
:101AF00008600020CFE7E16901F1080000F017F964
:101B00000746E16901F10C00002100F013F9A5621C
:101B1000E562666207F01007E16901F10C003946E1
:101B200000F008F92046FFF765FF80464046B2E71F
:101B30002DE9F04104460025E16901F1080000F0BB
:101B4000F6F8C7B2E16901F10C00002100F0F2F8EB
:101B500024E0E16901F1080000F0E9F8C6B206F0FE
:101B60000100D0B1E06900F0E2F8C2B228466D1C75
:101B7000236B1A5406F0200010B12069401C20612C
:101B800006F0800010B16069401C606106F0400002
:101B900020B1A069401CA06100E002E0A06BA84257
:101BA000D7D800BF206B28442063A06B411BA163E2
:101BB000E0682844E06007F01007E16901F10C00DB
:101BC000394600F0B7F82846BDE8F0812DE9F0412C
:101BD00004460E4615461CB10020594908600AE02B
:101BE00040F22D115548FEF7FFFA012054490860D4
:101BF0000020BDE8F0811EB100205149086009E0D5
:101C00004FF497714D48FEF7EFFA01204C490860F8
:101C10000020EEE7206AB0F1113F03D100204849CF
:101C2000086009E040F22F114448FEF7DDFA012078
:101C3000434908600020DCE7002D03DB0020404919
:101C4000086009E04FF498713C48FEF7CDFA012096
:101C50003B4908600020CCE7E16901F1080000F091
:101C600066F80746E16901F10C00002100F062F816
:101C70006563A563266307F01007E16901F10C00B5
:101C8000394600F057F82046FFF752FF804640469D
:101C9000AFE770B504461CB100202949086008E090
:101CA0004FF4B5712548FEF79FFA012024490860DA
:101CB00070BD206AB0F1113F03D1002020490860B7
:101CC00008E040F26B111D48FEF78EFA01201C4916
:101CD0000860EDE7E16901F1080000F028F8054629
:101CE00005F0100545F00301E26902F10C0000F077
:101CF00021F800BFDCE770B504461CB10020104994
:101D0000086009E040F295110C48FEF76DFA0120D9
:101D10000B490860002070BDE16901F1080000F086
:101D200006F8054600BF012020EA9500F3E70146CA
:101D30000868704702461160704700004C2500009B
:101D4000040000208519000070B504460D461646B3
:101D50001CB100207E49086007E064217D48FEF741
:101D600043FA01207A49086070BD1DB1002078490E
:101D7000086007E065217748FEF736FA01207449CC
:101D80000860F1E7206AB0F1113F03D100207049EB
:101D9000086007E066216F48FEF726FA01206C49CB
:101DA0000860E1E7E563266400BFDDE770B504463F
:101DB0000D4616461CB100206549086007E08521E4
:101DC0006448FEF711FA01206149086070BD1DB139
:101DD00000205F49086007E086215E48FEF704FAAC
:101DE00001205B490860F1E7206AB0F1113F03D19F
:101DF00000205749086007E087215648FEF7F4F9AC
:101E0000012053490860E1E76564A66400BFDDE78F
:101E100070B50446E06A38B9A56A0021A162294676
:101E2000D4E91120904702E02046FFF7E3FD206847
:101E3000401C206070BD70B50446A06B10B12046F8
:101E4000FFF776FEA06B28B9D4E90D53E91AD4E95F
:101E50000F2090476068401C606070BD70B50446FC
:101E60001CB100203A49086007E0A2213948FEF77A
:101E7000BBF901203649086070BDE16901F1080035
:101E8000056800BF05F0030010B12046FFF7D3FF3F
:101E900005F0040020B1A06A10B12046FFF7B8FF9A
:101EA00000BFE9E710B504461CB1002028490860CE
:101EB00008E040F221112748FEF796F90120244955
:101EC000086010BD206AB0F1113F03D10020204905
:101ED000086008E04FF491711E48FEF785F9012073
:101EE0001B490860EDE7E16901F10C00002100F0F9
:101EF0002BF800BFE5E710B504461CB100201449DB
:101F0000086008E040F23F111248FEF76DF9012029
:101F10000F49086010BD206AB0F1113F03D10020C5
:101F20000B49086008E04FF4A0710A48FEF75CF91D
:101F3000012007490860EDE7E16901F10C0010217B
:101F400000F002F800BFE5E70246116070470000AC
:101F500004000020A025000000BF00BF826802F03E
:101F60000802082AF9D0021D1346196000BF704705
:101F7000014600BF00BF886800F001000028F9D0CA
:101F800000BF0868C0B270470246002000210AE086
:101F9000164B03EB01131B88934203D1134B03EB46
:101FA000011002E0491C0029F2D000BF704770B553
:101FB00005460E461DB100200D49086008E081214C
:101FC0000C48FEF711F9012009490860002070BD96
:101FD0003046FFF7D9FF04460CB90220F7E7214647
:101FE00028466268FFF7DAFCF1E70000BC00002039
:101FF00004000020F825000070B504460D461CB111
:1020000000203049086007E05C212F48FEF7ECF81B
:1020100001202C49086070BD1DB1002029490860CD
:1020200007E05D212848FEF7DFF801202549086018
:10203000F1E7206AB0F1113F03D100202149086087
:1020400007E05E212048FEF7CFF801201D49086017
:10205000E1E72068286060686860A068A860E068C0
:10206000E86020692861A069A8616069686100BFB3
:10207000D1E710B504461CB100201249086007E002
:102080007F211148FEF7B0F801200E49086010BD0D
:10209000206AB0F1113F03D100200A49086007E02F
:1020A00080210948FEF7A0F8012006490860EEE704
:1020B000002020606060A060E0602061A06160613D
:1020C00000BFE4E704000020542600000FB41CB554
:1020D000074B06AA7B4469460090059800F00DF96D
:1020E0000020694600F01CF91CBC5DF814FB0000E0
:1020F000490200002DE9F0410E460446002020620E
:102100002046E168884730B3252805D0D4E901216D
:102110009047206A401CF2E7E16820460027884784
:10212000050018D0A5F14100192802D820354FF438
:1021300000673246294620462760FDF7FBFF40B185
:10214000012804D0F61D26F007060836D8E7361D0C
:10215000D6E72846DAE7206ABDE8F0812DE9F041AC
:102160000646002410687529314616A510D0AFF335
:102170000080002802DA404213A507E031688A0790
:1021800001D512A502E0490704D511A5012401E0FB
:10219000AFF3008000210A2206F1240709E0B0FB1A
:1021A000F2FCB0FBF2F302FB1C003030785418460E
:1021B000491C0028F3D123462A463046BDE8F041A9
:1021C00000F03DB8000000002D0000002B000000D2
:1021D0002000000010B5203AC0F00B80B1E8185084
:1021E000203AA0E81850B1E81850A0E81850BFF401
:1021F000F5AF5FEA027C24BFB1E81850A0E81850A0
:1022000044BF18C918C0BDE810405FEA827C24BFF3
:1022100051F8043B40F8043B08BF7047D20728BF81
:1022200031F8023B48BF11F8012B28BF20F8023BD0
:1022300048BF00F8012B70477047704770472DE981
:10224000F0470D4699469246044600F1240801687D
:10225000880604D5E06921F01001216000E001202A
:10226000A84201DD471B00E00027A1697A1902EBB3
:102270000900081AA0612078C00602D42046AFF3F6
:102280000080002608E0D4E901211AF806009047F2
:10229000206A401C761C20624E45F4DB2078C00684
:1022A0000AD52046AFF3008006E0D4E901213020B2
:1022B0009047206A401C2062381EA7F10107F4DC19
:1022C00007E0D4E9012118F805009047206A401C76
:1022D0002062281EA5F10105F3DC2046AFF3008043
:1022E0002078000602D50220BDE8F0870120FBE738
:1022F00001694A1C02610878704700B58FB0CDE9CA
:1023000001310021059105497944CDE903101146B9
:102310006846FFF7EFFE0FB000BD0000E5FFFFFFCE
:102320000A6802F8010B0A607047754600F02CF845
:10233000AE4605006946534620F00700854618B0B2
:1023400020B5FDF729FFBDE820404FF000064FF013
:1023500000074FF000084FF0000B21F00701AC46DA
:10236000ACE8C009ACE8C009ACE8C009ACE8C009F9
:102370008D46704710B50446AFF300802046BDE897
:102380001040FDF7E9BE000000487047A40500209A
:1023900001491820ABBEFEE726000200704700008E
:1023A00067452301EFCDAB89EFBEADDEEDDAEBFE85
:1023B000A53CF0A521436587A90BDCFE08040201BA
:1023C0002E2E5C73646B5F776F726B7370616365E5
:1023D0005C7374616E64616C6F6E655F6273705F75
:1023E000305C436F727465785F4D335F305C6C694D
:1023F000627372635C6770696F5F76345F345C73BD
:1024000072635C786770696F2E6300002E2E5C73B8
:10241000646B5F776F726B73706163655C7374611B
:102420006E64616C6F6E655F6273705F305C436F8A
:10243000727465785F4D335F305C6C696273726390
:102440005C6770696F5F76345F345C7372635C786D
:102450006770696F5F696E74722E63002E2E5C73F5
:10246000646B5F776F726B73706163655C737461CB
:102470006E64616C6F6E655F6273705F305C436F3A
:10248000727465785F4D335F305C6C696273726340
:102490005C6770696F5F76345F345C7372635C781D
:1024A0006770696F5F73696E69742E630000000066
:1024B0002E2E5C73646B5F776F726B7370616365F4
:1024C0005C7374616E64616C6F6E655F6273705F84
:1024D000305C436F727465785F4D335F305C6C695C
:1024E000627372635C7370695F76345F345C7372BD
:1024F000635C787370692E63000000002E2E5C739D
:10250000646B5F776F726B73706163655C7374612A
:102510006E64616C6F6E655F6273705F305C436F99
:10252000727465785F4D335F305C6C69627372639F
:102530005C7370695F76345F345C7372635C78736C
:1025400070695F73696E69742E6300002E2E5C7370
:10255000646B5F776F726B73706163655C737461DA
:102560006E64616C6F6E655F6273705F305C436F49
:10257000727465785F4D335F305C6C69627372634F
:102580005C756172746C6974655F76335F325C731D
:1025900072635C78756172746C6974652E63000097
:1025A0002E2E5C73646B5F776F726B737061636503
:1025B0005C7374616E64616C6F6E655F6273705F93
:1025C000305C436F727465785F4D335F305C6C696B
:1025D000627372635C756172746C6974655F763383
:1025E0005F325C7372635C78756172746C69746578
:1025F0005F696E74722E63002E2E5C73646B5F775E
:102600006F726B73706163655C7374616E64616C2F
:102610006F6E655F6273705F305C436F7274657874
:102620005F4D335F305C6C69627372635C756172BD
:10263000746C6974655F76335F325C7372635C7867
:10264000756172746C6974655F73696E69742E6309
:10265000000000002E2E5C73646B5F776F726B73EB
:10266000706163655C7374616E64616C6F6E655FED
:102670006273705F305C436F727465785F4D335F77
:10268000305C6C69627372635C756172746C6974DE
:10269000655F76335F325C7372635C787561727408
:1026A0006C6974655F73746174732E63000000005D
:1026B000D026000000000020CC000000FC0000003C
:1026C0009C270000CC0000203C15000018010000F1
:1026D00040787D01000000000100000000000000C3
:1026E00000000000000000000000000000000000EA
:1026F0000000114001000000010000000100000086
:102700000000124001000000010000000200000073
:102710000000014000000000000000000000000078
:10272000000013400100000000000000010802004A
:102730000000000000000000010000000000024056
:10274000010000000000000001080200000000007D
:102750000000000002000000000003400100000033
:102760000000000001080000000000000000000060
:102770000300000000000040010000000000000015
:10278000010802010000000001000000000000003C
:0C2790000000104000C201000000080022
:040000050000017D79
:00000001FF
